{
  "address": "0x5D35F822D0ae875511d34Fbd8e2a00F2dCbabD7B",
  "abi": [
    {
      "inputs": [
        {
          "internalType": "address",
          "name": "vrfCoordinatorV2",
          "type": "address"
        },
        {
          "internalType": "uint256",
          "name": "entranceFee",
          "type": "uint256"
        },
        {
          "internalType": "bytes32",
          "name": "gasLane",
          "type": "bytes32"
        },
        {
          "internalType": "uint64",
          "name": "subscriptionId",
          "type": "uint64"
        },
        {
          "internalType": "uint32",
          "name": "callbackGasLimit",
          "type": "uint32"
        },
        {
          "internalType": "uint256",
          "name": "interval",
          "type": "uint256"
        }
      ],
      "stateMutability": "nonpayable",
      "type": "constructor"
    },
    {
      "inputs": [
        {
          "internalType": "address",
          "name": "have",
          "type": "address"
        },
        {
          "internalType": "address",
          "name": "want",
          "type": "address"
        }
      ],
      "name": "OnlyCoordinatorCanFulfill",
      "type": "error"
    },
    {
      "inputs": [],
      "name": "Raffle__NotEnoughETHEntered",
      "type": "error"
    },
    {
      "inputs": [],
      "name": "Raffle__NotOpen",
      "type": "error"
    },
    {
      "inputs": [],
      "name": "Raffle__TransferFailed",
      "type": "error"
    },
    {
      "inputs": [
        {
          "internalType": "uint256",
          "name": "currentBalance",
          "type": "uint256"
        },
        {
          "internalType": "uint256",
          "name": "numPlayers",
          "type": "uint256"
        },
        {
          "internalType": "uint256",
          "name": "raffleState",
          "type": "uint256"
        }
      ],
      "name": "Raffle__UpkeepNotNeeded",
      "type": "error"
    },
    {
      "anonymous": false,
      "inputs": [
        {
          "indexed": false,
          "internalType": "address",
          "name": "player",
          "type": "address"
        }
      ],
      "name": "Raffleenter",
      "type": "event"
    },
    {
      "anonymous": false,
      "inputs": [
        {
          "indexed": true,
          "internalType": "uint256",
          "name": "requestId",
          "type": "uint256"
        }
      ],
      "name": "RequestedRaffleWinner",
      "type": "event"
    },
    {
      "anonymous": false,
      "inputs": [
        {
          "indexed": true,
          "internalType": "address",
          "name": "player",
          "type": "address"
        }
      ],
      "name": "WinnerPicked",
      "type": "event"
    },
    {
      "inputs": [
        {
          "internalType": "bytes",
          "name": "",
          "type": "bytes"
        }
      ],
      "name": "checkUpkeep",
      "outputs": [
        {
          "internalType": "bool",
          "name": "upkeepNeeded",
          "type": "bool"
        },
        {
          "internalType": "bytes",
          "name": "",
          "type": "bytes"
        }
      ],
      "stateMutability": "view",
      "type": "function"
    },
    {
      "inputs": [],
      "name": "enterRaffle",
      "outputs": [],
      "stateMutability": "payable",
      "type": "function"
    },
    {
      "inputs": [],
      "name": "getEntranceFee",
      "outputs": [
        {
          "internalType": "uint256",
          "name": "",
          "type": "uint256"
        }
      ],
      "stateMutability": "view",
      "type": "function"
    },
    {
      "inputs": [],
      "name": "getInterval",
      "outputs": [
        {
          "internalType": "uint256",
          "name": "",
          "type": "uint256"
        }
      ],
      "stateMutability": "view",
      "type": "function"
    },
    {
      "inputs": [],
      "name": "getLastTimeStamp",
      "outputs": [
        {
          "internalType": "uint256",
          "name": "",
          "type": "uint256"
        }
      ],
      "stateMutability": "view",
      "type": "function"
    },
    {
      "inputs": [],
      "name": "getNumWords",
      "outputs": [
        {
          "internalType": "uint256",
          "name": "",
          "type": "uint256"
        }
      ],
      "stateMutability": "pure",
      "type": "function"
    },
    {
      "inputs": [],
      "name": "getNumberOfPlayers",
      "outputs": [
        {
          "internalType": "uint256",
          "name": "",
          "type": "uint256"
        }
      ],
      "stateMutability": "view",
      "type": "function"
    },
    {
      "inputs": [
        {
          "internalType": "uint256",
          "name": "index",
          "type": "uint256"
        }
      ],
      "name": "getPlayer",
      "outputs": [
        {
          "internalType": "address",
          "name": "",
          "type": "address"
        }
      ],
      "stateMutability": "view",
      "type": "function"
    },
    {
      "inputs": [],
      "name": "getRaffleState",
      "outputs": [
        {
          "internalType": "enum Raffle.RaffleState",
          "name": "",
          "type": "uint8"
        }
      ],
      "stateMutability": "view",
      "type": "function"
    },
    {
      "inputs": [],
      "name": "getRecentWinner",
      "outputs": [
        {
          "internalType": "address",
          "name": "",
          "type": "address"
        }
      ],
      "stateMutability": "view",
      "type": "function"
    },
    {
      "inputs": [],
      "name": "getRequestConfirmations",
      "outputs": [
        {
          "internalType": "uint256",
          "name": "",
          "type": "uint256"
        }
      ],
      "stateMutability": "pure",
      "type": "function"
    },
    {
      "inputs": [
        {
          "internalType": "bytes",
          "name": "",
          "type": "bytes"
        }
      ],
      "name": "performUpkeep",
      "outputs": [],
      "stateMutability": "nonpayable",
      "type": "function"
    },
    {
      "inputs": [
        {
          "internalType": "uint256",
          "name": "requestId",
          "type": "uint256"
        },
        {
          "internalType": "uint256[]",
          "name": "randomWords",
          "type": "uint256[]"
        }
      ],
      "name": "rawFulfillRandomWords",
      "outputs": [],
      "stateMutability": "nonpayable",
      "type": "function"
    }
  ],
  "transactionHash": "0x309a40093a7cb800e70a5a24353ca847a57be85f05946bf1e9de6b8119a5d06d",
  "args": [
    "0x8103B0A8A00be2DDC778e6e7eaa21791Cd364625",
    "10000000000000000",
    "0x474e34a077df58807dbe9c96d3c009b23b3c6d0cce433e59bbf5b34f823bc56c",
    "1736",
    "500000",
    "30"
  ],
  "numDeployments": 1,
  "solcInputHash": "4cdeef18cedd51da4ef2c80492607ecd",
  "bytecode": "0x6101606040523480156200001257600080fd5b506040516200183138038062001831833981810160405281019062000038919062000294565b858073ffffffffffffffffffffffffffffffffffffffff1660808173ffffffffffffffffffffffffffffffffffffffff1681525050508460a081815250508573ffffffffffffffffffffffffffffffffffffffff166101408173ffffffffffffffffffffffffffffffffffffffff16815250508360c081815250508267ffffffffffffffff1660e08167ffffffffffffffff16815250508163ffffffff166101008163ffffffff16815250506000600160146101000a81548160ff021916908360018111156200010d576200010c62000330565b5b0217905550426002819055508061012081815250505050505050506200035f565b600080fd5b600073ffffffffffffffffffffffffffffffffffffffff82169050919050565b6000620001608262000133565b9050919050565b620001728162000153565b81146200017e57600080fd5b50565b600081519050620001928162000167565b92915050565b6000819050919050565b620001ad8162000198565b8114620001b957600080fd5b50565b600081519050620001cd81620001a2565b92915050565b6000819050919050565b620001e881620001d3565b8114620001f457600080fd5b50565b6000815190506200020881620001dd565b92915050565b600067ffffffffffffffff82169050919050565b6200022d816200020e565b81146200023957600080fd5b50565b6000815190506200024d8162000222565b92915050565b600063ffffffff82169050919050565b6200026e8162000253565b81146200027a57600080fd5b50565b6000815190506200028e8162000263565b92915050565b60008060008060008060c08789031215620002b457620002b36200012e565b5b6000620002c489828a0162000181565b9650506020620002d789828a01620001bc565b9550506040620002ea89828a01620001f7565b9450506060620002fd89828a016200023c565b93505060806200031089828a016200027d565b92505060a06200032389828a01620001bc565b9150509295509295509295565b7f4e487b7100000000000000000000000000000000000000000000000000000000600052602160045260246000fd5b60805160a05160c05160e051610100516101205161014051611462620003cf600039600061060f0152600081816107d1015261087a0152600061068f0152600061066c0152600061064b0152600081816102fa01526103f7015260008181610337015261038b01526114626000f3fe6080604052600436106100c25760003560e01c806353a2c19a1161007f57806391ad27b41161005957806391ad27b414610238578063c1c244e814610263578063e55ae4e81461028e578063fd6673f5146102cb576100c2565b806353a2c19a146101a45780635f1b0fd8146101cf5780636e04ff0d146101fa576100c2565b806309bc33a7146100c7578063115cbaf5146100f25780631fe543e31461011d5780632cfcc539146101465780634585e33b14610150578063473f1ddc14610179575b600080fd5b3480156100d357600080fd5b506100dc6102f6565b6040516100e99190610bec565b60405180910390f35b3480156100fe57600080fd5b5061010761031e565b6040516101149190610c7e565b60405180910390f35b34801561012957600080fd5b50610144600480360381019061013f9190610e32565b610335565b005b61014e6103f5565b005b34801561015c57600080fd5b5061017760048036038101906101729190610ee9565b610558565b005b34801561018557600080fd5b5061018e610748565b60405161019b9190610f77565b60405180910390f35b3480156101b057600080fd5b506101b9610772565b6040516101c69190610bec565b60405180910390f35b3480156101db57600080fd5b506101e4610781565b6040516101f19190610bec565b60405180910390f35b34801561020657600080fd5b50610221600480360381019061021c9190611047565b61078e565b60405161022f92919061112a565b60405180910390f35b34801561024457600080fd5b5061024d610876565b60405161025a9190610bec565b60405180910390f35b34801561026f57600080fd5b5061027861089e565b6040516102859190610bec565b60405180910390f35b34801561029a57600080fd5b506102b560048036038101906102b0919061115a565b6108a8565b6040516102c29190610f77565b60405180910390f35b3480156102d757600080fd5b506102e06108ef565b6040516102ed9190610bec565b60405180910390f35b60007f0000000000000000000000000000000000000000000000000000000000000000905090565b6000600160149054906101000a900460ff16905090565b7f000000000000000000000000000000000000000000000000000000000000000073ffffffffffffffffffffffffffffffffffffffff163373ffffffffffffffffffffffffffffffffffffffff16146103e757337f00000000000000000000000000000000000000000000000000000000000000006040517f1cf993f40000000000000000000000000000000000000000000000000000000081526004016103de929190611187565b60405180910390fd5b6103f182826108fb565b5050565b7f000000000000000000000000000000000000000000000000000000000000000034101561044f576040517fbd4e069500000000000000000000000000000000000000000000000000000000815260040160405180910390fd5b6000600181111561046357610462610c07565b5b600160149054906101000a900460ff16600181111561048557610484610c07565b5b146104bc576040517f1425571c00000000000000000000000000000000000000000000000000000000815260040160405180910390fd5b6000339080600181540180825580915050600190039060005260206000200160009091909190916101000a81548173ffffffffffffffffffffffffffffffffffffffff021916908373ffffffffffffffffffffffffffffffffffffffff1602179055507f620051e036107d94bab037d5d67d53093ae0d7b954ccf8a348a0e3d39f94536d3360405161054e9190610f77565b60405180910390a1565b60006105726040518060200160405280600081525061078e565b509050806105e15747600080549050600160149054906101000a900460ff1660018111156105a3576105a2610c07565b5b6040517f584327aa0000000000000000000000000000000000000000000000000000000081526004016105d8939291906111b0565b60405180910390fd5b60018060146101000a81548160ff0219169083600181111561060657610605610c07565b5b021790555060007f000000000000000000000000000000000000000000000000000000000000000073ffffffffffffffffffffffffffffffffffffffff16635d3b1d307f00000000000000000000000000000000000000000000000000000000000000007f000000000000000000000000000000000000000000000000000000000000000060037f000000000000000000000000000000000000000000000000000000000000000060016040518663ffffffff1660e01b81526004016106d095949392919061125f565b6020604051808303816000875af11580156106ef573d6000803e3d6000fd5b505050506040513d601f19601f8201168201806040525081019061071391906112c7565b9050807fcd6e45c8998311cab7e9d4385596cac867e20a0587194b954fa3a731c93ce78b60405160405180910390a250505050565b6000600160009054906101000a900473ffffffffffffffffffffffffffffffffffffffff16905090565b6000600163ffffffff16905090565b6000600361ffff16905090565b600060606000600160149054906101000a900460ff1660018111156107b6576107b5610c07565b5b600060018111156107ca576107c9610c07565b5b14905060007f0000000000000000000000000000000000000000000000000000000000000000600254426107fe9190611323565b1190506000806000805490501190506000804711905082801561081e5750835b80156108275750805b80156108305750815b9550856040518060400160405280600381526020017f30783000000000000000000000000000000000000000000000000000000000008152509550955050505050915091565b60007f0000000000000000000000000000000000000000000000000000000000000000905090565b6000600254905090565b60008082815481106108bd576108bc611357565b5b9060005260206000200160009054906101000a900473ffffffffffffffffffffffffffffffffffffffff169050919050565b60008080549050905090565b600080805490508260008151811061091657610915611357565b5b602002602001015161092891906113b5565b9050600080828154811061093f5761093e611357565b5b9060005260206000200160009054906101000a900473ffffffffffffffffffffffffffffffffffffffff16905080600160006101000a81548173ffffffffffffffffffffffffffffffffffffffff021916908373ffffffffffffffffffffffffffffffffffffffff160217905550600067ffffffffffffffff8111156109c8576109c7610cef565b5b6040519080825280602002602001820160405280156109f65781602001602082028036833780820191505090505b5060009080519060200190610a0c929190610b2c565b50426002819055506000600160146101000a81548160ff02191690836001811115610a3a57610a39610c07565b5b021790555060008173ffffffffffffffffffffffffffffffffffffffff1647604051610a6590611417565b60006040518083038185875af1925050503d8060008114610aa2576040519150601f19603f3d011682016040523d82523d6000602084013e610aa7565b606091505b5050905080610ae2576040517fa1d04b3900000000000000000000000000000000000000000000000000000000815260040160405180910390fd5b8173ffffffffffffffffffffffffffffffffffffffff167f5b690ec4a06fe979403046eaeea5b3ce38524683c3001f662c8b5a829632f7df60405160405180910390a25050505050565b828054828255906000526020600020908101928215610ba5579160200282015b82811115610ba45782518260006101000a81548173ffffffffffffffffffffffffffffffffffffffff021916908373ffffffffffffffffffffffffffffffffffffffff16021790555091602001919060010190610b4c565b5b509050610bb29190610bb6565b5090565b5b80821115610bcf576000816000905550600101610bb7565b5090565b6000819050919050565b610be681610bd3565b82525050565b6000602082019050610c016000830184610bdd565b92915050565b7f4e487b7100000000000000000000000000000000000000000000000000000000600052602160045260246000fd5b60028110610c4757610c46610c07565b5b50565b6000819050610c5882610c36565b919050565b6000610c6882610c4a565b9050919050565b610c7881610c5d565b82525050565b6000602082019050610c936000830184610c6f565b92915050565b6000604051905090565b600080fd5b600080fd5b610cb681610bd3565b8114610cc157600080fd5b50565b600081359050610cd381610cad565b92915050565b600080fd5b6000601f19601f8301169050919050565b7f4e487b7100000000000000000000000000000000000000000000000000000000600052604160045260246000fd5b610d2782610cde565b810181811067ffffffffffffffff82111715610d4657610d45610cef565b5b80604052505050565b6000610d59610c99565b9050610d658282610d1e565b919050565b600067ffffffffffffffff821115610d8557610d84610cef565b5b602082029050602081019050919050565b600080fd5b6000610dae610da984610d6a565b610d4f565b90508083825260208201905060208402830185811115610dd157610dd0610d96565b5b835b81811015610dfa5780610de68882610cc4565b845260208401935050602081019050610dd3565b5050509392505050565b600082601f830112610e1957610e18610cd9565b5b8135610e29848260208601610d9b565b91505092915050565b60008060408385031215610e4957610e48610ca3565b5b6000610e5785828601610cc4565b925050602083013567ffffffffffffffff811115610e7857610e77610ca8565b5b610e8485828601610e04565b9150509250929050565b600080fd5b60008083601f840112610ea957610ea8610cd9565b5b8235905067ffffffffffffffff811115610ec657610ec5610e8e565b5b602083019150836001820283011115610ee257610ee1610d96565b5b9250929050565b60008060208385031215610f0057610eff610ca3565b5b600083013567ffffffffffffffff811115610f1e57610f1d610ca8565b5b610f2a85828601610e93565b92509250509250929050565b600073ffffffffffffffffffffffffffffffffffffffff82169050919050565b6000610f6182610f36565b9050919050565b610f7181610f56565b82525050565b6000602082019050610f8c6000830184610f68565b92915050565b600080fd5b600067ffffffffffffffff821115610fb257610fb1610cef565b5b610fbb82610cde565b9050602081019050919050565b82818337600083830152505050565b6000610fea610fe584610f97565b610d4f565b90508281526020810184848401111561100657611005610f92565b5b611011848285610fc8565b509392505050565b600082601f83011261102e5761102d610cd9565b5b813561103e848260208601610fd7565b91505092915050565b60006020828403121561105d5761105c610ca3565b5b600082013567ffffffffffffffff81111561107b5761107a610ca8565b5b61108784828501611019565b91505092915050565b60008115159050919050565b6110a581611090565b82525050565b600081519050919050565b600082825260208201905092915050565b60005b838110156110e55780820151818401526020810190506110ca565b60008484015250505050565b60006110fc826110ab565b61110681856110b6565b93506111168185602086016110c7565b61111f81610cde565b840191505092915050565b600060408201905061113f600083018561109c565b818103602083015261115181846110f1565b90509392505050565b6000602082840312156111705761116f610ca3565b5b600061117e84828501610cc4565b91505092915050565b600060408201905061119c6000830185610f68565b6111a96020830184610f68565b9392505050565b60006060820190506111c56000830186610bdd565b6111d26020830185610bdd565b6111df6040830184610bdd565b949350505050565b6000819050919050565b6111fa816111e7565b82525050565b600067ffffffffffffffff82169050919050565b61121d81611200565b82525050565b600061ffff82169050919050565b61123a81611223565b82525050565b600063ffffffff82169050919050565b61125981611240565b82525050565b600060a08201905061127460008301886111f1565b6112816020830187611214565b61128e6040830186611231565b61129b6060830185611250565b6112a86080830184611250565b9695505050505050565b6000815190506112c181610cad565b92915050565b6000602082840312156112dd576112dc610ca3565b5b60006112eb848285016112b2565b91505092915050565b7f4e487b7100000000000000000000000000000000000000000000000000000000600052601160045260246000fd5b600061132e82610bd3565b915061133983610bd3565b9250828203905081811115611351576113506112f4565b5b92915050565b7f4e487b7100000000000000000000000000000000000000000000000000000000600052603260045260246000fd5b7f4e487b7100000000000000000000000000000000000000000000000000000000600052601260045260246000fd5b60006113c082610bd3565b91506113cb83610bd3565b9250826113db576113da611386565b5b828206905092915050565b600081905092915050565b50565b60006114016000836113e6565b915061140c826113f1565b600082019050919050565b6000611422826113f4565b915081905091905056fea26469706673582212200bbdf63cf6e3854a6c8cb17c99e953c43863cd61e58eb55a1be1f033e7b2b8ed64736f6c63430008120033",
  "devdoc": {
    "kind": "dev",
    "methods": {
      "checkUpkeep(bytes)": {
        "details": "This is the function that the chainlink keeper nodes call they look for the upkeepNeeded to rturn true the following should be true in order to return true 1- our time interval should have passed 2- the lottery should have at least 1 player, and have some ETH 3- our subscription is funded with Link 4- the lottery shoud be in an open state"
      },
      "performUpkeep(bytes)": {
        "details": "Once `checkUpkeep` is returning `true`, this function is called and it kicks off a Chainlink VRF call to get a random winner."
      }
    },
    "version": 1
  },
  "userdoc": {
    "kind": "user",
    "methods": {},
    "version": 1
  },
  "storageLayout": {
    "storage": [
      {
        "astId": 205,
        "contract": "contracts/Raffle.sol:Raffle",
        "label": "s_players",
        "offset": 0,
        "slot": "0",
        "type": "t_array(t_address_payable)dyn_storage"
      },
      {
        "astId": 221,
        "contract": "contracts/Raffle.sol:Raffle",
        "label": "s_recentWinner",
        "offset": 0,
        "slot": "1",
        "type": "t_address"
      },
      {
        "astId": 224,
        "contract": "contracts/Raffle.sol:Raffle",
        "label": "s_raffleState",
        "offset": 20,
        "slot": "1",
        "type": "t_enum(RaffleState)202"
      },
      {
        "astId": 226,
        "contract": "contracts/Raffle.sol:Raffle",
        "label": "s_lastTimeStamp",
        "offset": 0,
        "slot": "2",
        "type": "t_uint256"
      }
    ],
    "types": {
      "t_address": {
        "encoding": "inplace",
        "label": "address",
        "numberOfBytes": "20"
      },
      "t_address_payable": {
        "encoding": "inplace",
        "label": "address payable",
        "numberOfBytes": "20"
      },
      "t_array(t_address_payable)dyn_storage": {
        "base": "t_address_payable",
        "encoding": "dynamic_array",
        "label": "address payable[]",
        "numberOfBytes": "32"
      },
      "t_enum(RaffleState)202": {
        "encoding": "inplace",
        "label": "enum Raffle.RaffleState",
        "numberOfBytes": "1"
      },
      "t_uint256": {
        "encoding": "inplace",
        "label": "uint256",
        "numberOfBytes": "32"
      }
    }
  }
}